:020000040800F2
:100000000050002031120008B1030008B3030008BB
:10001000B5030008B7030008B9030008000000009A
:10002000000000000000000000000000BB0300080A
:10003000BD03000800000000BF030008C103000862
:100040007912000879120008791200087912000864
:100050007912000879120008791200087912000854
:100060007912000879120008791200087912000844
:100070007912000879120008791200087912000834
:100080007912000879120008791200087912000824
:100090007912000879120008791200087912000814
:1000A0007912000879120008791200087912000804
:1000B00079120008791200087912000879120008F4
:1000C00079120008791200087912000879120008E4
:1000D00079120008791200087912000879120008D4
:1000E0007912000879120008791200080000000057
:1000F0000000000000000000000000000000000000
:0C01000000000000000000005FF808F1A3
:10010C00044B05481B1A062B02D9044B03B11847A4
:10011C00704700BF0F0000200C0000200000000002
:10012C0005490648091A891001EBD171491002D012
:10013C00034B03B1184770470C0000200C00002043
:10014C000000000010B5064C237843B9FFF7D8FF28
:10015C00044B13B10448AFF300800123237010BD8E
:10016C000C000020000000007C12000808B5084BB1
:10017C001BB108490848AFF300800848036813B95D
:10018C00BDE80840CCE7064B002BF9D09847F7E7C1
:10019C0000000000100000207C1200080C00002061
:1001AC000000000070B50F4E0F4D761BB61018BF37
:1001BC00002405D0013455F8043B9847A642F9D1E8
:1001CC000A4E0B4D01F054F8761BB61018BF0024E4
:1001DC0006D0013455F8043B9847A642F9D170BDBE
:1001EC0070BD00BFCC120008CC120008D012000861
:1001FC00CC12000870B4860746D0541E002A41D099
:10020C00CAB2034602E014F1FF343BD303F8012BCE
:10021C009D07F8D1032C2ED9CDB245EA05250F2C1C
:10022C0045EA054519D9264603F11002103E0F2E5A
:10023C0042F8105C42F80C5C42F8085C42F8045C32
:10024C0002F11002F2D8A4F1100222F00F0204F015
:10025C000F041032032C13440DD91E462246043AC7
:10026C00032A46F8045BFAD8221F22F00302043258
:10027C00134404F003042CB1C9B21C4403F8011B51
:10028C009C42FBD170BC704714460346C2E700BFCA
:10029C0020F0030110F00300C0F1000051F8043B02
:1002AC0000F1040C4FEACC0C6FF000021CBF22FAD8
:1002BC000CF213434FF0010C4CEA0C2C4CEA0C4C96
:1002CC00A3EB0C0222EA030212EACC1204BF51F88F
:1002DC00043B0430F4D0C2F1000102EA0102B2FA8C
:1002EC0082F2C2F11F0200EBD200704730B591B020
:1002FC002822002106A8FFF77DFF00240194029418
:10030C00039404940594012206924FF480330793CE
:10031C000A9202250D950E934FF4E0130F9306A845
:10032C0000F0E2F80F230193029503944FF48063DD
:10033C0004930594294601A800F0FCFA11B030BDD5
:10034C0008B500F083F8FFF7D1FF00F013F800F0C8
:10035C0005FF054800F058FF044800F055FF4FF426
:10036C00FA6000F097F8F4E7A8120008B012000841
:10037C007047000082B00A4B9A6942F020029A61E1
:10038C009A6902F020020092009A9A6942F00402E3
:10039C009A619B6903F004030193019B02B07047BF
:1003AC00001002407047FEE7FEE7FEE7FEE77047ED
:1003BC007047704708B500F05BF808BD82B00E4B73
:1003CC009A6942F001029A619A6902F00102009264
:1003DC00009ADA6942F08052DA61DB6903F08053EB
:1003EC000193019B054A536823F0E06343F00073CB
:1003FC00536002B0704700BF001002400000014083
:10040C0010B504460E4B18784FF47A73B3FBF0F327
:10041C000C4A1068B0FBF3F000F0BAFC68B90F2C72
:10042C0001D9012010BD002221464FF0FF3000F011
:10043C007DFC054B1C60002010BD012010BD00BFD1
:10044C0000000020080000200400002008B5074A26
:10045C00136843F010031360032000F055FC0020D8
:10046C00FFF7CEFFFFF7AAFF002008BD00200240D7
:10047C00034A1168034B1B780B441360704700BF91
:10048C006800002000000020014B1868704700BF76
:10049C006800002038B50446FFF7F6FF0546B4F1B6
:1004AC00FF3F02D0044B1B781C44FFF7EDFF401BB1
:1004BC008442FAD838BD00BF0000002082B0084B3F
:1004CC001B68084AA2FB03235B0A00FB03F00190A4
:1004DC0000BF019B5A1E0192002BF9D102B070474C
:1004EC0008000020D34D621070B582B0044603683A
:1004FC0013F0010F3DD0AC4B5B6803F00C03042BE5
:10050C002ED0A94B5B6803F00C03082B23D0636837
:10051C00B3F5803F51D0002B55D103F1804303F547
:10052C0004331A6822F480321A601A6822F480228A
:10053C001A606368002B60D0FFF7A6FF05469A4B44
:10054C001B6813F4003F14D1FFF79EFF401B642877
:10055C00F5D90320AFE1944B5B6813F4803FD6D000
:10056C00914B1B6813F4003F03D06368002B00F021
:10057C009F81236813F0020F65D08B4B5B6813F0DF
:10058C000C0F4ED0884B5B6803F00C03082B43D048
:10059C002369002B79D00122844B1A60FFF774FF7A
:1005AC000546814B1B6813F0020F65D1FFF76CFFFA
:1005BC00401B0228F5D903207DE17B4A136843F4E4
:1005CC0080331360B5E7B3F5A02F09D0764B1A68CA
:1005DC0022F480321A601A6822F480221A60A8E78A
:1005EC0003F18043A3F53C331A6842F480221A606D
:1005FC001A6842F480321A609BE7FFF745FF054604
:10060C00694B1B6813F4003FB3D0FFF73DFF401B51
:10061C006428F5D903204EE1634B5B6813F4803FEB
:10062C00B6D1614B1B6813F0020F04D02369012B68
:10063C0001D001203FE15C4A136823F0F8036169A3
:10064C0043EAC1031360236813F0080F32D0A36987
:10065C00002B6ED00122564B1A60FFF715FF054692
:10066C00514B5B6A13F0020F21D1FFF70DFF401BBA
:10067C000228F5D903201EE14B4A136823F0F80336
:10068C00616943EAC1031360DDE70022474B1A603E
:10069C00FFF7FAFE0546444B1B6813F0020FD2D04D
:1006AC00FFF7F2FE401B0228F5D9032003E10120DD
:1006BC00FFF704FF236813F0040F00F099803A4B06
:1006CC00DB6913F0805F46D1374BDA6942F0805218
:1006DC00DA61DB6903F080530193019B0125354BF3
:1006EC001B6813F4807F38D0E368012B49D0002BB2
:1006FC004DD103F1804303F504331A6A22F0010251
:10070C001A621A6A22F004021A62E368002B5DD0A6
:10071C00FFF7BAFE0646244B1B6A13F0020F66D194
:10072C00FFF7B2FE801B41F288339842F3D90320C5
:10073C00C1E000221E4B1A60FFF7A6FE05461A4BBD
:10074C005B6A13F0020FB5D0FFF79EFE401B022828
:10075C00F5D90320AFE00025C1E7164A136843F42E
:10076C0080731360FFF790FE0646124B1B6813F460
:10077C00807FB9D1FFF788FE801B6428F5D9032050
:10078C0099E0094A136A43F001031362BDE7052B94
:10079C0012D0054B1A6A22F001021A621A6A22F070
:1007AC0004021A62B1E700BF00100240000042428E
:1007BC008004424200700040414B1A6A42F004022D
:1007CC001A621A6A42F001021A629EE7FFF75CFE97
:1007DC0006463B4B1B6A13F0020F08D0FFF754FE82
:1007EC00801B41F288339842F3D9032063E0E5B9CA
:1007FC00E369002B5ED0324A526802F00C02082AE0
:10080C005BD0022B17D000222E4B1A60FFF73CFE58
:10081C0004462B4B1B6813F0007F47D0FFF734FEC8
:10082C00001B0228F5D9032045E0254AD36923F0A3
:10083C008053D361DCE70022224B1A60FFF724FEC1
:10084C0005461F4B1B6813F0007F06D0FFF71CFEFC
:10085C00401B0228F5D903202DE0236AB3F5803F15
:10086C001AD017494B6823F47413226A606A024346
:10087C0013434B600122134B1A60FFF705FE04462D
:10088C000F4B1B6813F0007F0ED1FFF7FDFD001B13
:10089C000228F5D903200EE0094A536823F40033EB
:1008AC00A1680B435360DCE7002004E0002002E069
:1008BC00012000E0002002B070BD0120FBE700BF6A
:1008CC00001002406000424210B586B0154C94E80E
:1008DC000F000DF1180E0EE90F00238AADF804304D
:1008EC00114B5B6803F00C02082A18D1C3F3834246
:1008FC00724412F8102C13F4803F03D10B4800FB08
:10090C0002F00DE0084B5B68C3F34043734413F8EB
:10091C00143C074800FB02F0B0FBF3F000E0044885
:10092C0006B010BD941200080010024000093D00F2
:10093C0000127A00624B1B6803F007038B420CD247
:10094C005F4A136823F007030B431360136803F02B
:10095C000703994201D00120704770B5036813F06A
:10096C00020F17D013F0040F04D0564A536843F407
:10097C00E0635360036813F0080F04D0514A5368C6
:10098C0043F4605353604F4A536823F0F003846878
:10099C00234353600D460446036813F0010F52D0F5
:1009AC004368012B23D0022B28D0464A126812F040
:1009BC00020F00F0828043494A6822F0030213437D
:1009CC004B60FFF761FD06466368012B1DD0022BBF
:1009DC002AD03C4B5B6813F00C0F34D0FFF754FD5E
:1009EC00801B41F288339842F3D9032070BD354AFD
:1009FC00126812F4003FDED1012070BD314A12683A
:100A0C0012F0007FD7D1012070BD2E4B5B6803F034
:100A1C000C03042B17D0FFF737FD801B41F28833F2
:100A2C009842F2D9032070BD264B5B6803F00C038F
:100A3C00082B08D0FFF728FD801B41F28833984221
:100A4C00F2D9032070BD1E4B1B6803F007039D42B7
:100A5C000CD21B4A136823F007032B431360136853
:100A6C0003F007039D4201D0012070BD236813F0F1
:100A7C00040F06D0134A536823F4E063E1680B4378
:100A8C005360236813F0080F07D00E4A536823F401
:100A9C006053216943EAC1035360FFF715FF094B0B
:100AAC005B68C3F30313084AD35CD840074B186048
:100ABC000020FFF7A5FC002070BD012070BD00BF19
:100ACC000020024000100240B41200080800002070
:100ADC00014B1868704700BF0800002008B5FFF7ED
:100AEC00F7FF044B5B68C3F30223034AD35CD84083
:100AFC0008BD00BF00100240C412000808B5FFF783
:100B0C00E7FF044B5B68C3F3C223034AD35CD840B2
:100B1C0008BD00BF00100240C4120008F0B583B03D
:100B2C000026344671E0002D00F0A180012D00D18B
:100B3C00CE68FF2B00F2AF808646FF2B00F2AE8012
:100B4C00A500DEF800200F27AF4022EA070206FAC4
:100B5C0005F52A43CEF800204A6812F0805F53D086
:100B6C00634A956945F001059561926902F00102AD
:100B7C000192019AA508AF1C5E4A52F8272004F096
:100B8C000307BF004FF00F0E0EFA07FE22EA0E020B
:100B9C00DFF870E1704500F088800EF5806E7045CE
:100BAC0000F086800EF5806E704500F084800EF5A6
:100BBC00806E704576D04FF0040E0EFA07F73A436C
:100BCC0002354C4F47F825204A6812F4803F75D007
:100BDC00494D2A681A432A604A6812F4003F73D0C0
:100BEC00454D6A681A436A604A6812F4801F71D0D6
:100BFC00414DAA681A43AA604A6812F4001F6FD0CC
:100C0C003D4DEA681343EB6001340F2C6ED8012282
:100C1C00A2400B6813409A42F6D14D68122D30D089
:100C2C000BD8022D2AD07FF67EAF032D2FD0112D9D
:100C3C007FF47FAFCE6804367BE7304FBD4216D0D1
:100C4C000CD92F4FBD4212D007F58037BD420ED0C4
:100C5C00A7F58017BD427FF46CAF08E0A7F58017AD
:100C6C00BD4204D007F58037BD427FF462AF8D687A
:100C7C007DB1012D08D0426108265AE7CE680836AE
:100C8C0057E7CE680C3654E70261082651E7002678
:100C9C004FE704264DE700F1040E4EE7A4F10805DA
:100CAC00AD004EE74FF0030E87E74FF0000E84E7E0
:100CBC004FF0010E81E74FF0020E7EE70E4D2A68D1
:100CCC0022EA03022A6087E70B4D6A6822EA0302D4
:100CDC006A6089E7084DAA6822EA0302AA608BE7DA
:100CEC00054DEA6822EA0303EB608DE703B0F0BD23
:100CFC0000100240000001400004014000002110DF
:100D0C000000311000080140074AD36823F4E06367
:100D1C001B041B0C000200F4E060184340F0BF60A1
:100D2C0040F40030D060704700ED00E030B4164B5A
:100D3C00DB68C3F30223C3F10704042C28BF04248B
:100D4C001D1D062D17D9033B012505FA04F4013CA2
:100D5C002140994005FA03F3013B13401943002845
:100D6C000BDB0901C9B200F1604000F5614080F86D
:100D7C00001330BC70470023E6E700F00F000901B8
:100D8C00C9B2024B1954F4E700ED00E014ED00E099
:100D9C000138B0F1807F0AD2064B5860F021064A28
:100DAC0082F823100020986007221A6070470120F7
:100DBC00704700BF10E000E000ED00E02DE9F047C7
:100DCC0005460268136923F44053C1680B43136151
:100DDC00836802691343426913430168CA6822F4A9
:100DEC00B05222F00C021343CB600268536923F417
:100DFC00407381690B435361D0F80080594B98457F
:100E0C0057D0FFF76BFE00EB800000EB80006C68A6
:100E1C00A400B0FBF4F4544FA7FB0434640926017E
:100E2C00FFF75CFE00EB800000EB80006C68A40018
:100E3C00B0FBF4FAFFF752FE00EB800000EB8000F1
:100E4C006C68A400B0FBF4F4A7FB043464094FF005
:100E5C00640909FB14A424013234A7FB043464098B
:100E6C0004F0F0043444FFF739FE00EB800000EB93
:100E7C0080006E68B600B0FBF6F6FFF72FFE00EBB5
:100E8C00800000EB80006B689B00B0FBF3F0A7FBCD
:100E9C000030400909FB10694FEA091909F13209C0
:100EAC00A7FB0937C7F343172744C8F80870BDE8F8
:100EBC00F087FFF723FE00EB800000EB80006C68EE
:100ECC00A400B0FBF4F4284FA7FB043464092601FA
:100EDC00FFF714FE00EB800000EB80006C68A400B0
:100EEC00B0FBF4FAFFF70AFE00EB800000EB800089
:100EFC006C68A400B0FBF4F4A7FB043464094FF055
:100F0C00640909FB14A424013234A7FB04346409DA
:100F1C0004F0F0043444FFF7F1FD00EB800000EB2B
:100F2C0080006E68B600B0FBF6F6FFF7E7FD00EB4D
:100F3C00800000EB80006B689B00B0FBF3F3A7FB19
:100F4C0003235B0909FB13694FEA091909F13209FB
:100F5C00A7FB0937C7F343172744C8F80870BDE847
:100F6C00F08700BF003801401F85EB512DE9F0419F
:100F7C0005460F4616469846069C2B681B6837EAB2
:100F8C0003030CBF01230023B3421ED1B4F1FF3F76
:100F9C00F3D02CB1FFF778FAA0EB08008442ECD226
:100FAC002A68D36823F4D073D3602A68536923F07A
:100FBC0001035361202385F8393085F83A3000233A
:100FCC0085F838300320BDE8F0810020BDE8F081C1
:100FDC0058B310B5044690F839300BB3242384F879
:100FEC0039302268D36823F40053D3602046FFF7CE
:100FFC00E5FE2268136923F4904313612268536958
:10100C0023F02A0353612268D36843F40053D3605E
:10101C000020E063202384F8393084F83A3010BD86
:10102C0080F8383000F0B4F8D8E7012070472DE98B
:10103C00F04182B01E4690F83930DBB2202B04D040
:10104C000223184602B0BDE8F08104460D469046D6
:10105C00002955D0002A55D090F83830012B01D1F9
:10106C000223EEE7012380F838300023C3632123E9
:10107C0080F83930FFF708FA0746A4F82480A4F862
:10108C00268010E000963B46002280212046FFF788
:10109C006DFF002838D122682B88C3F308035360F6
:1010AC002369CBB90235E38C9BB2BBB1E38C9BB209
:1010BC00013B9BB2E384A368B3F5805FE2D000965A
:1010CC003B46002280212046FFF750FFF0B92368F1
:1010DC002A785A600135E6E70135E4E700963B468D
:1010EC00002240212046FFF741FF034608B10323AD
:1010FC00A7E7202284F83920002284F83820A0E7C2
:10110C0001239EE701239CE703239AE7032398E737
:10111C000F4B1A6842F001021A6059680D4A0A40D6
:10112C005A601A6822F0847222F480321A601A68AB
:10113C0022F480221A605A6822F4FE025A604FF49C
:10114C001F029A604FF00062034B9A60704700BF19
:10115C00001002400000FFF800ED00E008B50A485E
:10116C000A4B03604FF41653436000238360C36043
:10117C0003610C2242618361C361FFF729FF00B94F
:10118C0008BDFFF7F5F8FBE7280000200038014008
:10119C0010B586B000230293039304930593026861
:1011AC00174B9A4201D006B010BD03F558439A690B
:1011BC0042F480429A619A6902F480420092009A49
:1011CC009A6942F004029A619B6903F0040301934B
:1011DC00019B4FF4007302930223039303230593A3
:1011EC00084C02A92046FFF799FC4FF48063029348
:1011FC0000230393049302A92046FFF78FFCD2E748
:10120C00003801400008014010B50446FFF740F8D3
:10121C00642382B221460248FFF709FF10BD00BFCC
:10122C0028000020002103E00B4B5B584350043195
:10123C000A480B4B42189A42F6D30A4A02E00023A2
:10124C0042F8043B084B9A42F9D3FFF761FFFEF7D3
:10125C00A9FFFFF775F87047D412000800000020B2
:10126C000C0000200C0000206C000020FEE70000A9
:10127C00F8B500BFF8BC08BC9E467047F8B500BF77
:08128C00F8BC08BC9E46704747
:1012940002030405060708090A0B0C0D0E0F1010B3
:1012A40001020000486F6C61000000000A000000A9
:1012B4000000000000000000010203040607080902
:0812C400000000000102030418
:0412CC00790100089C
:0412D00051010008C0
:0C12D400010000001000000000A24A040D
:0400000508001231AC
:00000001FF
